{
  "_format": "hh-sol-artifact-1",
  "contractName": "ExampleSwapToPrice",
  "sourceName": "contracts/examples/ExampleSwapToPrice.sol",
  "abi": [
    {
      "inputs": [
        {
          "internalType": "address",
          "name": "factory_",
          "type": "address"
        },
        {
          "internalType": "contract IUniswapV2Router01",
          "name": "router_",
          "type": "address"
        }
      ],
      "stateMutability": "nonpayable",
      "type": "constructor"
    },
    {
      "inputs": [],
      "name": "factory",
      "outputs": [
        {
          "internalType": "address",
          "name": "",
          "type": "address"
        }
      ],
      "stateMutability": "view",
      "type": "function"
    },
    {
      "inputs": [],
      "name": "router",
      "outputs": [
        {
          "internalType": "contract IUniswapV2Router01",
          "name": "",
          "type": "address"
        }
      ],
      "stateMutability": "view",
      "type": "function"
    },
    {
      "inputs": [
        {
          "internalType": "address",
          "name": "tokenA",
          "type": "address"
        },
        {
          "internalType": "address",
          "name": "tokenB",
          "type": "address"
        },
        {
          "internalType": "uint256",
          "name": "truePriceTokenA",
          "type": "uint256"
        },
        {
          "internalType": "uint256",
          "name": "truePriceTokenB",
          "type": "uint256"
        },
        {
          "internalType": "uint256",
          "name": "maxSpendTokenA",
          "type": "uint256"
        },
        {
          "internalType": "uint256",
          "name": "maxSpendTokenB",
          "type": "uint256"
        },
        {
          "internalType": "address",
          "name": "to",
          "type": "address"
        },
        {
          "internalType": "uint256",
          "name": "deadline",
          "type": "uint256"
        }
      ],
      "name": "swapToPrice",
      "outputs": [],
      "stateMutability": "nonpayable",
      "type": "function"
    }
  ],
  "bytecode": "0x60c060405234801561001057600080fd5b506040516115d13803806115d18339818101604052604081101561003357600080fd5b8101908080519060200190929190805190602001909291905050508173ffffffffffffffffffffffffffffffffffffffff1660a08173ffffffffffffffffffffffffffffffffffffffff1660601b815250508073ffffffffffffffffffffffffffffffffffffffff1660808173ffffffffffffffffffffffffffffffffffffffff1660601b81525050505060805160601c60a05160601c6114db6100f6600039806102a3528061067752508061038d5280610490528061069b52506114db6000f3fe608060405234801561001057600080fd5b50600436106100415760003560e01c8063bef90fd314610046578063c45a0155146100fd578063f887ea4014610147575b600080fd5b6100fb600480360361010081101561005d57600080fd5b81019080803573ffffffffffffffffffffffffffffffffffffffff169060200190929190803573ffffffffffffffffffffffffffffffffffffffff16906020019092919080359060200190929190803590602001909291908035906020019092919080359060200190929190803573ffffffffffffffffffffffffffffffffffffffff16906020019092919080359060200190929190505050610191565b005b610105610675565b604051808273ffffffffffffffffffffffffffffffffffffffff1673ffffffffffffffffffffffffffffffffffffffff16815260200191505060405180910390f35b61014f610699565b604051808273ffffffffffffffffffffffffffffffffffffffff1673ffffffffffffffffffffffffffffffffffffffff16815260200191505060405180910390f35b600086141580156101a3575060008514155b610215576040517f08c379a000000000000000000000000000000000000000000000000000000000815260040180806020018281038252601e8152602001807f4578616d706c6553776170546f50726963653a205a45524f5f5052494345000081525060200191505060405180910390fd5b600084141580610226575060008314155b610298576040517f08c379a000000000000000000000000000000000000000000000000000000000815260040180806020018281038252601e8152602001807f4578616d706c6553776170546f50726963653a205a45524f5f5350454e44000081525060200191505060405180910390fd5b6000806000806102c97f00000000000000000000000000000000000000000000000000000000000000008d8d6106bd565b915091506102d98a8a84846107e6565b809450819550505050506000811161033c576040517f08c379a00000000000000000000000000000000000000000000000000000000081526004018080602001828103825260228152602001806114846022913960400191505060405180910390fd5b600082610349578561034b565b865b905080821115610359578091505b600083610366578a610368565b8b5b9050600084610377578c610379565b8b5b9050610387823330876108e6565b6103b2827f000000000000000000000000000000000000000000000000000000000000000086610af7565b6060600267ffffffffffffffff811180156103cc57600080fd5b506040519080825280602002602001820160405280156103fb5781602001602082028036833780820191505090505b509050828160008151811061040c57fe5b602002602001019073ffffffffffffffffffffffffffffffffffffffff16908173ffffffffffffffffffffffffffffffffffffffff1681525050818160018151811061045457fe5b602002602001019073ffffffffffffffffffffffffffffffffffffffff16908173ffffffffffffffffffffffffffffffffffffffff16815250507f000000000000000000000000000000000000000000000000000000000000000073ffffffffffffffffffffffffffffffffffffffff166338ed1739866000848c8c6040518663ffffffff1660e01b815260040180868152602001858152602001806020018473ffffffffffffffffffffffffffffffffffffffff1673ffffffffffffffffffffffffffffffffffffffff168152602001838152602001828103825285818151815260200191508051906020019060200280838360005b8381101561056657808201518184015260208101905061054b565b505050509050019650505050505050600060405180830381600087803b15801561058f57600080fd5b505af11580156105a3573d6000803e3d6000fd5b505050506040513d6000823e3d601f19601f8201168201806040525060208110156105cd57600080fd5b81019080805160405193929190846401000000008211156105ed57600080fd5b8382019150602082018581111561060357600080fd5b825186602082028301116401000000008211171561062057600080fd5b8083526020830192505050908051906020019060200280838360005b8381101561065757808201518184015260208101905061063c565b50505050905001604052505050505050505050505050505050505050565b7f000000000000000000000000000000000000000000000000000000000000000081565b7f000000000000000000000000000000000000000000000000000000000000000081565b60008060006106cc8585610cd3565b5090506000806106dd888888610e67565b73ffffffffffffffffffffffffffffffffffffffff16630902f1ac6040518163ffffffff1660e01b815260040160606040518083038186803b15801561072257600080fd5b505afa158015610736573d6000803e3d6000fd5b505050506040513d606081101561074c57600080fd5b81019080805190602001909291908051906020019092919080519060200190929190505050506dffffffffffffffffffffffffffff1691506dffffffffffffffffffffffffffff1691508273ffffffffffffffffffffffffffffffffffffffff168773ffffffffffffffffffffffffffffffffffffffff16146107d05780826107d3565b81815b8095508196505050505050935093915050565b600080856107f5858786610fc2565b109150600061080d84866110a290919063ffffffff16565b9050600061086461085f61082c6103e8856110a290919063ffffffff16565b866108375789610839565b8a5b61085a6103e58961084a578d61084c565b8c5b6110a290919063ffffffff16565b610fc2565b611137565b905060006103e58561088a576108856103e8886110a290919063ffffffff16565b6108a0565b61089f6103e8896110a290919063ffffffff16565b5b816108a757fe5b049050808210156108c457600080809050945094505050506108dd565b6108d781836112b490919063ffffffff16565b93505050505b94509492505050565b600060608573ffffffffffffffffffffffffffffffffffffffff166323b872dd868686604051602401808473ffffffffffffffffffffffffffffffffffffffff1673ffffffffffffffffffffffffffffffffffffffff1681526020018373ffffffffffffffffffffffffffffffffffffffff1673ffffffffffffffffffffffffffffffffffffffff16815260200182815260200193505050506040516020818303038152906040529060e01b6020820180517bffffffffffffffffffffffffffffffffffffffffffffffffffffffff83818316178352505050506040518082805190602001908083835b602083106109f357805182526020820191506020810190506020830392506109d0565b6001836020036101000a0380198251168184511680821785525050505050509050019150506000604051808303816000865af19150503d8060008114610a55576040519150601f19603f3d011682016040523d82523d6000602084013e610a5a565b606091505b5091509150818015610a9a5750600081511480610a995750808060200190516020811015610a8757600080fd5b81019080805190602001909291905050505b5b610aef576040517f08c379a00000000000000000000000000000000000000000000000000000000081526004018080602001828103825260318152602001806114286031913960400191505060405180910390fd5b505050505050565b600060608473ffffffffffffffffffffffffffffffffffffffff1663095ea7b38585604051602401808373ffffffffffffffffffffffffffffffffffffffff1673ffffffffffffffffffffffffffffffffffffffff168152602001828152602001925050506040516020818303038152906040529060e01b6020820180517bffffffffffffffffffffffffffffffffffffffffffffffffffffffff83818316178352505050506040518082805190602001908083835b60208310610bd05780518252602082019150602081019050602083039250610bad565b6001836020036101000a0380198251168184511680821785525050505050509050019150506000604051808303816000865af19150503d8060008114610c32576040519150601f19603f3d011682016040523d82523d6000602084013e610c37565b606091505b5091509150818015610c775750600081511480610c765750808060200190516020811015610c6457600080fd5b81019080805190602001909291905050505b5b610ccc576040517f08c379a000000000000000000000000000000000000000000000000000000000815260040180806020018281038252602b815260200180611459602b913960400191505060405180910390fd5b5050505050565b6000808273ffffffffffffffffffffffffffffffffffffffff168473ffffffffffffffffffffffffffffffffffffffff161415610d78576040517f08c379a00000000000000000000000000000000000000000000000000000000081526004018080602001828103825260208152602001807f537761704c6962726172793a204944454e544943414c5f41444452455353455381525060200191505060405180910390fd5b8273ffffffffffffffffffffffffffffffffffffffff168473ffffffffffffffffffffffffffffffffffffffff1610610db2578284610db5565b83835b8092508193505050600073ffffffffffffffffffffffffffffffffffffffff168273ffffffffffffffffffffffffffffffffffffffff161415610e60576040517f08c379a00000000000000000000000000000000000000000000000000000000081526004018080602001828103825260198152602001807f537761704c6962726172793a205a45524f5f414444524553530000000000000081525060200191505060405180910390fd5b9250929050565b6000806000610e768585610cd3565b91509150858282604051602001808373ffffffffffffffffffffffffffffffffffffffff1673ffffffffffffffffffffffffffffffffffffffff1660601b81526014018273ffffffffffffffffffffffffffffffffffffffff1673ffffffffffffffffffffffffffffffffffffffff1660601b8152601401925050506040516020818303038152906040528051906020012060405160200180807fff000000000000000000000000000000000000000000000000000000000000008152506001018373ffffffffffffffffffffffffffffffffffffffff1673ffffffffffffffffffffffffffffffffffffffff1660601b8152601401828152602001807faf88dd15a55596feb9d67243c727bfd6144af12453963809bc91f0cfcf8241bc815250602001925050506040516020818303038152906040528051906020012060001c925050509392505050565b6000806000610fd18686611337565b9150915060008480610fdf57fe5b868809905082811115610ff3576001820391505b808303925060008214156110155784838161100a57fe5b04935050505061109b565b84821061108a576040517f08c379a000000000000000000000000000000000000000000000000000000000815260040180806020018281038252601a8152602001807f46756c6c4d6174683a2046554c4c4449565f4f564552464c4f5700000000000081525060200191505060405180910390fd5b61109583838761138a565b93505050505b9392505050565b6000808214806110bf57508282838502925082816110bc57fe5b04145b611131576040517f08c379a00000000000000000000000000000000000000000000000000000000081526004018080602001828103825260148152602001807f64732d6d6174682d6d756c2d6f766572666c6f7700000000000000000000000081525060200191505060405180910390fd5b92915050565b60008082141561114a57600090506112af565b6000829050600060019050700100000000000000000000000000000000821061117c57608082901c9150604081901b90505b68010000000000000000821061119b57604082901c9150602081901b90505b64010000000082106111b657602082901c9150601081901b90505b6201000082106111cf57601082901c9150600881901b90505b61010082106111e757600882901c9150600481901b90505b601082106111fe57600482901c9150600281901b90505b6008821061120e57600181901b90505b600181858161121957fe5b048201901c9050600181858161122b57fe5b048201901c9050600181858161123d57fe5b048201901c9050600181858161124f57fe5b048201901c9050600181858161126157fe5b048201901c9050600181858161127357fe5b048201901c9050600181858161128557fe5b048201901c9050600081858161129757fe5b0490508082106112a757806112a9565b815b93505050505b919050565b6000828284039150811115611331576040517f08c379a00000000000000000000000000000000000000000000000000000000081526004018080602001828103825260158152602001807f64732d6d6174682d7375622d756e646572666c6f77000000000000000000000081525060200191505060405180910390fd5b92915050565b60008060007fffffffffffffffffffffffffffffffffffffffffffffffffffffffffffffffff8061136457fe5b84860990508385029250828103915082811015611382576001820391505b509250929050565b600080826000038316905080838161139e57fe5b0492508085816113aa57fe5b04945060018182600003816113bb57fe5b0401840285019450600060019050808402600203810290508084026002038102905080840260020381029050808402600203810290508084026002038102905080840260020381029050808402600203810290508084026002038102905080860292505050939250505056fe5472616e7366657248656c7065723a3a7472616e7366657246726f6d3a207472616e7366657246726f6d206661696c65645472616e7366657248656c7065723a3a73616665417070726f76653a20617070726f7665206661696c65644578616d706c6553776170546f50726963653a205a45524f5f414d4f554e545f494ea2646970667358221220502bb3a2210292ad52e3c890ac0fa462d280faee4a7c7ed4b5a99ac590761adf64736f6c63430006060033",
  "linkReferences": {},
  "deployedLinkReferences": {}
}